:100000000C943B010C946C010C946C010C946C01ED
:100010000C946C010C946C010C946C010C946C01AC
:100020000C946C010C946C010C946C010C946C019C
:100030000C946C010C946C010C946C010C94EC020B
:100040000C946C010C946C010C946C010C946C017C
:100050000C944B040C946C010C946C010C94A20253
:100060000C946C010C946C010C946C010C946C015C
:100070000C946C010C946C010C946C010C946C014C
:100080000C946C010C946C010C946C010C946C013C
:100090000C946C010C946C010C946C010C946C012C
:1000A0000C946C010C946C010C946C010C946C011C
:1000B0000C946C010C946C010C946C010C946C010C
:1000C0000C946C010C946C010C946C010C946C01FC
:1000D0000C946C010C946C010C946C010C946C01EC
:1000E0000C946C010C94D6010C94B7010C94A301F0
:1000F0000C94EE010C94C2010C94E4010C94D20116
:100100000C94DA010C94CC010C94BF010C94E00126
:100110000C94F2010C94C8010C94BB010C9486075A
:100120000C94B3010C94E8010C949E010000220091
:10013000250028002B002E003100340002010000B1
:10014000050108010B0100002100240027002A00FE
:100150002D003000330001010000040107010A01F5
:10016000000020002300260029002C002F00320070
:100170000001000003010601090105050505070549
:1001800008080808020202020A0A08080404040413
:10019000010101010101010103030303030303033F
:1001A000040707070C0C0C0C0C0C0C0C02020202CE
:1001B00006060606060606060B0B0B0B0B0B0B0BB7
:1001C0000102102020080810204010204080020169
:1001D000020108040201010204081020408080404E
:1001E000201008040201800402018040201008044D
:1001F00002010804020101020408102040800102EB
:1002000004081020408000000A0B02090C0D0E08A3
:1002100007030401000000000000000000000000CF
:1002200000000000000000000000000000000000CE
:10023000000012111000000000000000000000008B
:10024000000000000000000000000000FFC0FFC030
:10025000F7C0EAC0EAC0FFC0F7C0EAC0EAC0FFC00A
:10026000F7C0EAC0EAC0FFC0FFC0FFC0F7C0EAC0E5
:10027000EAC0FFC0860711241FBECFEFD1E2DEBF68
:10028000CDBF00E00CBF12E0A0E0B2E0E0E1F1E1A0
:1002900000E00BBF02C007900D92A430B107D9F760
:1002A00023E1A4E0B2E001C01D92A730B207E1F75C
:1002B00011E0CBE3D1E000E006C021970109802FD7
:1002C000FE010E946308CA33D10780E00807A9F73E
:1002D0000E946A040C9486080C940000282F30E0D9
:1002E000F901EA5FFD4F9491F901E054FE4F44910A
:1002F00026583E4FF9012491222309F477C099230F
:1003000011F191509231F8F4E92FF0E08827E45789
:10031000FE4F8F4F0C946308BB01BF019E01B301D8
:10032000B701A301C201C801CC01D201D601DA0193
:10033000E001E401A301E801EE01F20180918000F7
:100340008F7780938000E22FF0E0EE0FFF1FE05ADE
:10035000FE4FA591B491EC91E42381E090E009F087
:1003600047C080E00895809180008F7DEACF809122
:100370008000877FE6CF84B58F7784BDE4CF84B5D6
:100380008F7DFBCF8091B0008F778093B000DBCF63
:100390008091B0008F7DF9CF809190008F7780930E
:1003A0009000D1CF809190008F7DF9CF8091900007
:1003B000877FF5CF8091A0008F778093A000C3CF77
:1003C0008091A0008F7DF9CF8091A000877FF5CF2D
:1003D000809120018F7780932001B5CF80912001FB
:1003E0008F7DF9CF80912001877FF5CF80E090E06D
:1003F0000895CF93DF9390E0FC01E054FE4F2491E9
:1004000086589E4FFC0184918823D1F090E0880F9C
:10041000991FFC01EA5BFE4FA591B491FC01E45DDC
:10042000FE4FC591D491623071F49FB7F8943C911E
:10043000822F809583238C93E8812E2B28839FBF66
:10044000DF91CF9108958FB7F894EC912E2B2C93D8
:100450008FBFF6CF90E0FC01F595E795F595E79510
:100460002EE1629FE00DF11D1124EF5EFD4F80959E
:1004700090958370880F23E030E0082E01C0220F92
:100480000A94EAF720959081292301C0440F8A95A8
:10049000EAF7242B20830895EF92FF920F931F9386
:1004A000CF93DF93E82EC62F122F160FF42EF80EDF
:1004B000C11781F0DE2DDF1559F0D83738F4C0357B
:1004C00028F4402F6C2F8D2F0E942A02DF5FF3CF7C
:1004D000CF5FEECFDF91CF911F910F91FF90EF9003
:1004E0000895CF93DF93C091790BC15095E0C99FD8
:1004F000E0011124C758D44F9BE0C937D90769F0F0
:100500002D81FE01349795E0DE01119601900D9248
:100510009A95E1F72D832597EFCF982F990F990F93
:10052000890F90917A0B980F90937A0B862F880FF2
:10053000880F860F60917B0B680F60937B0BDF91B8
:10054000CF9108951F920F920FB60F9211242F93FF
:100550003F938F939F93AF93BF9380910313909199
:100560000413A0910513B09106133091021323E0F8
:10057000230F2D3758F50196A11DB11D20930213AD
:100580008093031390930413A0930513B093061361
:100590008091FE129091FF12A0910013B09101136F
:1005A0000196A11DB11D8093FE129093FF12A0939E
:1005B0000013B0930113BF91AF919F918F913F9121
:1005C0002F910F900FBE0F901F90189526E8230FC4
:1005D0000296A11DB11DD2CF1F920F920FB60F929E
:1005E00011240BB60F920F931F932F934F935F938A
:1005F0008F939F93EF93FF93E9E0F2E080E0008117
:10060000803031F0003059F421E026B9808309C0F0
:1006100000000000000000000000000002C00A9579
:10062000008380910802882399F08150809308020A
:10063000FF91EF919F918F915F914F912F911F911A
:100640000F910F900BBE0F900FBE0F901F9018953B
:1006500080910702803560F700914600010D0E5F22
:1006600007700E9433031F91FF91EF913796E00FBF
:1006700009940000000000000000000000000000DD
:100680009EE1899FF0011124EF5EFD4F44E001914E
:1006900008B9049F08B8049E08B8049E08B80191E0
:1006A00008B9049F08B8049E08B8049E08B80191D0
:1006B00008B9049F08B8049E08B8049E08B80191C0
:1006C00008B9049F08B8049E08B8049E08B80191B0
:1006D00008B9049F08B8049E08B8049E08B80191A0
:1006E00008B9049F08B8049E08B8049E08B8019190
:1006F00008B9049F08B8049E08B8049E08B8019180
:1007000008B9049F08B8049E08B8049E08B801916F
:1007100008B9049F08B8049E08B8049E08B801915F
:1007200008B9049F08B8049E08B8049E08B801914F
:1007300008B9049F08B8049E08B8049E08B801913F
:1007400008B9049F08B8049E08B8049E08B801912F
:1007500008B9049F08B8049E08B8049E08B801911F
:1007600008B9049F08B8049E08B8049E08B801910F
:1007700008B9049F08B8049E08B8049E08B80191FF
:1007800008B9049F08B8049E08B8049E08B80191EF
:1007900008B9049F08B8049E08B8049E08B80191DF
:1007A00008B9049F08B8049E08B8049E08B80191CF
:1007B00008B9049F08B8049E08B8049E08B80191BF
:1007C00008B9049F08B8049E08B8049E08B80191AF
:1007D00008B9049F08B8049E08B8049E08B801919F
:1007E00008B9049F08B8049E08B8049E08B801918F
:1007F00008B9049F08B8049E08B8049E08B801917F
:1008000008B9049F08B8049E08B8049E08B801916E
:1008100008B9049F08B8049E08B8049E08B801915E
:1008200008B9049F08B8049E08B8049E08B801914E
:1008300008B9049F08B8049E08B8049E08B801913E
:1008400008B9049F08B8049E08B8049E08B801912E
:1008500008B9049F08B8049E08B8049E08B801911E
:1008600008B9049F08B8049E08B8049E08B80000A0
:1008700000E008B9809106028F5F853019F08093FF
:100880000602D6CE8FEF80930602809107028F5F1B
:1008900080930702CDCE1F920F920FB60F921124B4
:1008A0008F939F938FEF8093060280E280930802DC
:1008B0008091040290910502019690930502809325
:1008C0000402109207029F918F910F900FBE0F901C
:1008D0001F901895CF93DF93CDB7DEB76E970FB605
:1008E000F894DEBF0FBECDBF789484B5826084BD1E
:1008F00084B5816084BD85B5826085BD85B5816024
:1009000085BD80916E00816080936E0010928100A1
:10091000809181008260809381008091810081605C
:10092000809381008091800081608093800080911D
:10093000B10084608093B1008091B00081608093A9
:10094000B00080919100826080939100809191002D
:1009500081608093910080919000816080939000ED
:100960008091A10082608093A1008091A1008160AC
:100970008093A1008091A00081608093A00080916D
:100980002101826080932101809121018160809307
:1009900021018091200181608093200180917A0063
:1009A000846080937A0080917A00826080937A00DC
:1009B00080917A00816080937A0080917A008068CB
:1009C00080937A001092C10061E080E30E94F901F7
:1009D00061E080E30E94F90162E08CE20E94F9018B
:1009E00062E08DE20E94F90162E08EE20E94F9016C
:1009F00062E08FE20E94F901CE0101965AE030E0F8
:100A000061E00AE025E03111B1C01D82FC01508394
:100A1000018323832283DE015A96422F01900D9297
:100A20004A95E1F74091790B249FD0011124A658F3
:100A3000B44FFE017A96722F01900D927A95E1F7EC
:100A40004F5F4093790B3F5F5B5F05963530D9F67A
:100A500081E090E09093FB128093FA12F89461E0A9
:100A600086E30E94F90110926E0014BC11E015BDDE
:100A700017BC18BC16BC61E08BE00E94F90182E84B
:100A8000809380008DE18093810083E091E09093DA
:100A9000870080938600109289001092880016BB10
:100AA00010936F0061E089E00E94F90183E2809376
:100AB000B0000093B1008FE38093B30087E0809390
:100AC000B40017BB1093700061E08EE10E94F90141
:100AD00061E08FE10E94F901789440E659E06FEF00
:100AE00070E081E192E00E947F0842E0A42EB12CE8
:100AF00053E0852E912C35E0532E8CE20E946E013E
:100B00006C0190930F0280930E028DE20E946E01A1
:100B10007C0190930D0280930C028EE20E946E0184
:100B20008C0190930B0280930A028FE20E946E0167
:100B3000CD2809F49BC1EF2809F487C1012B09F4E2
:100B400074C1892B09F0A0C18091FA129091FB1217
:100B50000297029708F498C180917A0B893708F0C0
:100B600093C19092FB128092FA128EC1FC016483B1
:100B70004DCF92E0E90EF11C1F5FA3C1411661F158
:100B8000103528F5302E712C612CE7E7E315B8F00D
:100B9000F301F595E795F595E795EE0DFF1D449169
:100BA00050E0862D80958370880F02C0559547953B
:100BB0008A95E2F74370612F832D0E942A02FFEF8E
:100BC0006F1A7F0A339485E068167104F1F692E09B
:100BD000E90EF11C1F5FD2CFEFEFCE1ADE0AF3E071
:100BE000CF22DD24C09210028091710B811121C0AF
:100BF00010E08091790B1817E0F4812F90E09C01B0
:100C00002F5F3F4F529ED001539EB00D1124A75825
:100C1000B44F589EF001599EF00D1124E758F44F3F
:100C20000C9124814381628181810E944C021F5F6B
:100C3000E0CF02E025E048E760E080E00E944C025F
:100C400025E048E76BE480E00E944C022BE445E09D
:100C500065E080E00E944C022BE445E065E083E71C
:100C60000E944C028091FC129091FD1201968530F9
:100C7000910560F49093FD128093FC1280E090E067
:100C8000892B09F43ACF0E94000035CF1092FD1253
:100C90001092FC128091FA129091FB128130910512
:100CA00009F487C008F47BC020917A0B823091054B
:100CB00009F486C0039709F489C090917A0B80915A
:100CC000750B981355C090917B0B8091760B981300
:100CD0004FC08091790B859DF0011124E658F44FA7
:100CE000108211825282538291E094838F5F8093AD
:100CF000790B01E01092740B10E08091790B1817BA
:100D000058F50E94DD0766E170E00E944F080196E9
:100D1000982F990F990F890F8093730B0E94DD070D
:100D20006EE070E00E944F089C012F5F3F4F822FC2
:100D3000880F880F820F8093720B519EF00111244F
:100D4000E758F44F21819091730B291345C092818C
:100D5000891342C00093740B8091740B8111CACF28
:100D60008091730B8093750B8091720B8093760B3F
:100D70004091790B20917A0B30917B0B9091710B04
:100D8000E9E7FBE081E0841748F55681251304C0AC
:100D90005781351301C091E08F5F3596F4CF809174
:100DA0007B0B6FEF853008F488CF80E00E947102E2
:100DB00084CF80917B0B873408F07FCF61E0F5CF43
:100DC00060E08FEF253008F478CFF0CF2F3608F0B1
:100DD00074CF60E081E0EACF1F5F8FCF9093710BFB
:100DE0008091FA129091FB1281309105A9F070F078
:100DF00082309105A1F00397A9F040E659E06FEF2A
:100E000070E081E192E00E947F0838CF3530A8F78A
:100E100081E08093710BF1CF3734D0F7EECF2530DE
:100E2000B8F3EBCF2F36A0F7E8CF8091FA1290916C
:100E3000FB120297029740F180917A0B853020F1E6
:100E4000B092FB12A092FA121FC08091FA129091F8
:100E5000FB120297C8F080917B0B8135A8F481E0EA
:100E600090E09093FB128093FA120EC08091FA12D8
:100E70009091FB12029740F080917B0B853020F01F
:100E80001092FB121092FA128091710B8111ACCE6C
:100E90001091760B0091750BE0901002CE2CD12CA6
:100EA0009AE0E99E70011124F701E45BFD4F7F0198
:100EB00025E0422E410E043708F060CE1C3408F0C5
:100EC0005DCE141509F488CE712C612CF5E06F16F7
:100ED000710409F44ECEF301F595E795F595E79584
:100EE000EE0DFF1D449150E0862D80958370880F94
:100EF00002C0559547958A95E2F7612F802F860DA0
:100F00000E942A028FEF681A780AE0CF1092790BBC
:100F1000E5E7FBE089E6808381E4818385E08283E5
:100F2000838308958F929F92AF92BF92CF92DF9268
:100F3000EF92FF92CF93DF93EC01688179818A81F0
:100F40009B81611571058105910521F464E279EDBC
:100F50008BE597E02DE133EF41E050E00E94EC0794
:100F600049015A019B01AC01A7EAB1E40E940B08B8
:100F70006B017C01ACEEB4EFA50194010E9419084D
:100F8000DC01CB018C0D9D1DAE1DBF1DB7FF03C045
:100F90000197A109B04888839983AA83BB839F776F
:100FA000DF91CF91FF90EF90DF90CF90BF90AF9007
:100FB0009F908F9008950C94920780E092E00C949B
:100FC0009207B0E0A0E08093000290930102A0930A
:100FD0000202B09303020895052E97FB1EF40094BD
:100FE0000E94030857FD07D00E941E0807FC03D08B
:100FF0004EF40C94030850954095309521953F4F41
:101000004F4F5F4F089590958095709561957F4FF4
:101010008F4F9F4F08950E944008A59F900DB49F49
:10102000900DA49F800D911D11240895B7FF0C947D
:101030000B080E940B08821B930B0895A1E21A2E45
:10104000AA1BBB1BFD010DC0AA1FBB1FEE1FFF1F6C
:10105000A217B307E407F50720F0A21BB30BE40BBC
:10106000F50B661F771F881F991F1A9469F7609503
:101070007095809590959B01AC01BD01CF010895BD
:10108000A29FB001B39FC001A39F700D811D1124C9
:10109000911DB29F700D811D1124911D089597FB24
:1010A000072E16F4009407D077FD09D00E946B0834
:1010B00007FC05D03EF4909581959F4F089570955B
:1010C00061957F4F0895EE0FFF1F881F8BBF07901C
:1010D000F691E02D1994AA1BBB1B51E107C0AA1F72
:1010E000BB1FA617B70710F0A61BB70B881F991FC9
:1010F0005A95A9F780959095BC01CD010895DC0122
:1011000001C06D9341505040E0F70895F894FFCF2F
:0411100001000000DA
:00000001FF
