:100000000C943B010C945F010C945F010C945F0114
:100010000C945F010C945F010C945F010C945F01E0
:100020000C945F010C945F010C945F010C945F01D0
:100030000C945F010C945F010C945F010C94DF023F
:100040000C945F010C945F010C945F010C945F01B0
:100050000C943E040C945F010C945F010C94950287
:100060000C945F010C945F010C945F010C945F0190
:100070000C945F010C945F010C945F010C945F0180
:100080000C945F010C945F010C945F010C945F0170
:100090000C945F010C945F010C945F010C945F0160
:1000A0000C945F010C945F010C945F010C945F0150
:1000B0000C945F010C945F010C945F010C945F0140
:1000C0000C945F010C945F010C945F010C945F0130
:1000D0000C945F010C945F010C945F010C945F0120
:1000E0000C945F010C94B2010C94BB010C94A6011A
:1000F0000C94BF010C94DB010C94D7010C94CD013E
:100100000C94D3010C94AE010C94B5010C94C50170
:100110000C94E5010C94E1010C9496010C94A0065A
:100120000C9491010C94C9010C94AA0100002200C6
:10013000250028002B002E003100340002010000B1
:10014000050108010B0100002100240027002A00FE
:100150002D003000330001010000040107010A01F5
:10016000000020002300260029002C002F00320070
:100170000001000003010601090105050505070549
:1001800008080808020202020A0A08080404040413
:10019000010101010101010103030303030303033F
:1001A000040707070C0C0C0C0C0C0C0C02020202CE
:1001B00006060606060606060B0B0B0B0B0B0B0BB7
:1001C0000102102020080810204010204080020169
:1001D000020108040201010204081020408080404E
:1001E000201008040201800402018040201008044D
:1001F00002010804020101020408102040800102EB
:1002000004081020408000000A0B02090C0D0E08A3
:1002100007030401000000000000000000000000CF
:1002200000000000000000000000000000000000CE
:10023000000012111000000000000000000000008B
:10024000000000000000000000000000FFC0FFC030
:10025000F7C0EAC0EAC0FFC0F7C0EAC0EAC0FFC00A
:10026000F7C0EAC0EAC0FFC0FFC0FFC0F7C0EAC0E5
:10027000EAC0FFC0A00611241FBECFEFD1E2DEBF4F
:10028000CDBF00E00CBF22E1A0E0B2E001C01D92B2
:10029000AB3FB207E1F711E0CBE3D1E000E006C0ED
:1002A00021970109802FFE010E94A306CA33D107BE
:1002B00080E00807A9F70E945D040C94B2060C9434
:1002C0000000282F30E0F901EA5FFD4F9491F90119
:1002D000E054FE4F449126583E4FF90124912223C9
:1002E00009F477C0992311F191509231F8F4E92F74
:1002F000F0E08827E158FE4F8F4F0C94A306AE0123
:10030000B2019101A601AA019601B501BB01BF018D
:10031000C501C901CD01D301D7019601DB01E1017E
:10032000E501809180008F7780938000E22FF0E0DC
:10033000EE0FFF1FE05AFE4FA591B491EC91E4231C
:1003400081E090E009F047C080E00895809180004E
:100350008F7DEACF80918000877FE6CF84B58F774D
:1003600084BDE4CF84B58F7DFBCF8091B0008F77C3
:100370008093B000DBCF8091B0008F7DF9CF80916A
:1003800090008F7780939000D1CF809190008F7DE7
:10039000F9CF80919000877FF5CF8091A0008F7773
:1003A0008093A000C3CF8091A0008F7DF9CF809172
:1003B000A000877FF5CF809120018F778093200167
:1003C000B5CF809120018F7DF9CF80912001877F6B
:1003D000F5CF80E090E00895CF93DF9390E0FC01AB
:1003E000E054FE4F249186589E4FFC01849188234F
:1003F000D1F090E0880F991FFC01EA5BFE4FA591B8
:10040000B491FC01E45DFE4FC591D491623071F46A
:100410009FB7F8943C91822F809583238C93E88139
:100420002E2B28839FBFDF91CF9108958FB7F8942B
:10043000EC912E2B2C938FBFF6CF90E0FC01F5951D
:10044000E795F595E7952EE1629FE00DF11D1124EA
:10045000E35FFD4F809590958370880F23E030E037
:10046000082E01C0220F0A94EAF7209590812923D3
:1004700001C0440F8A95EAF7242B20830895EF9258
:10048000FF920F931F93CF93DF93E82EC62F122F67
:10049000160FF42EF80EC11781F0DE2DDF1559F07E
:1004A000D83738F4C03528F4402F6C2F8D2F0E9498
:1004B0001D02DF5FF3CFCF5FEECFDF91CF911F91B2
:1004C0000F91FF90EF900895CF93DF93C0916D0B44
:1004D000C15095E0C99FE0011124C359D44F9BE05E
:1004E000CD36D90769F02D81FE01349795E0DE0104
:1004F000119601900D929A95E1F72D832597EFCFF4
:10050000982F990F990F890F90916E0B980F9093D8
:100510006E0B862F880F880F860F60916F0B680F08
:1005200060936F0BDF91CF9108951F920F920FB6DA
:100530000F9211242F933F938F939F93AF93BF9369
:100540008091F7129091F812A091F912B091FA12DD
:100550003091F61223E0230F2D3758F50196A11D97
:10056000B11D2093F6128093F7129093F812A09386
:10057000F912B093FA128091F2129091F312A091B5
:10058000F412B091F5120196A11DB11D8093F212E3
:100590009093F312A093F412B093F512BF91AF9120
:1005A0009F918F913F912F910F900FBE0F901F90B1
:1005B000189526E8230F0296A11DB11DD2CF1F92D8
:1005C0000F920FB60F9211240BB60F920F931F9339
:1005D0002F934F935F938F939F93EF93FF93E5E058
:1005E000F2E080E00081803031F0003059F421E009
:1005F00026B9808309C00000000000000000000050
:10060000000002C00A95008380910402882399F0BB
:10061000815080930402FF91EF919F918F915F91A0
:100620004F912F911F910F910F900BBE0F900FBE06
:100630000F901F90189580910302803560F700910C
:100640004600010D0E5F07700E9426031F91FF9167
:10065000EF913796E00F09940000000000000000C1
:100660000000000000009EE1899FF0011124E35F7B
:10067000FD4F44E0019108B9049F08B8049E08B8F2
:10068000049E08B8019108B9049F08B8049E08B8F0
:10069000049E08B8019108B9049F08B8049E08B8E0
:1006A000049E08B8019108B9049F08B8049E08B8D0
:1006B000049E08B8019108B9049F08B8049E08B8C0
:1006C000049E08B8019108B9049F08B8049E08B8B0
:1006D000049E08B8019108B9049F08B8049E08B8A0
:1006E000049E08B8019108B9049F08B8049E08B890
:1006F000049E08B8019108B9049F08B8049E08B880
:10070000049E08B8019108B9049F08B8049E08B86F
:10071000049E08B8019108B9049F08B8049E08B85F
:10072000049E08B8019108B9049F08B8049E08B84F
:10073000049E08B8019108B9049F08B8049E08B83F
:10074000049E08B8019108B9049F08B8049E08B82F
:10075000049E08B8019108B9049F08B8049E08B81F
:10076000049E08B8019108B9049F08B8049E08B80F
:10077000049E08B8019108B9049F08B8049E08B8FF
:10078000049E08B8019108B9049F08B8049E08B8EF
:10079000049E08B8019108B9049F08B8049E08B8DF
:1007A000049E08B8019108B9049F08B8049E08B8CF
:1007B000049E08B8019108B9049F08B8049E08B8BF
:1007C000049E08B8019108B9049F08B8049E08B8AF
:1007D000049E08B8019108B9049F08B8049E08B89F
:1007E000049E08B8019108B9049F08B8049E08B88F
:1007F000049E08B8019108B9049F08B8049E08B87F
:10080000049E08B8019108B9049F08B8049E08B86E
:10081000049E08B8019108B9049F08B8049E08B85E
:10082000049E08B8019108B9049F08B8049E08B84E
:10083000049E08B8019108B9049F08B8049E08B83E
:10084000049E08B8019108B9049F08B8049E08B82E
:10085000049E08B8000000E008B9809102028F5F92
:10086000853019F080930202D6CE8FEF809302027A
:10087000809103028F5F80930302CDCE1F920F926F
:100880000FB60F9211248F939F938FEF80930202E4
:1008900080E280930402809100029091010201960F
:1008A0009093010280930002109203029F918F9116
:1008B0000F900FBE0F901F901895CF93DF93CDB779
:1008C000DEB76E970FB6F894DEBF0FBECDBF78943B
:1008D00084B5826084BD84B5816084BD85B5826045
:1008E00085BD85B5816085BD80916E0081608093F6
:1008F0006E0010928100809181008260809381005F
:10090000809181008160809381008091800081606E
:10091000809380008091B10084608093B1008091C9
:10092000B00081608093B0008091910082608093DC
:10093000910080919100816080939100809190005E
:100940008160809390008091A10082608093A100DB
:100950008091A10081608093A1008091A0008160BE
:100960008093A00080912101826080932101809179
:100970002101816080932101809120018160809319
:10098000200180917A00846080937A0080917A00BF
:10099000826080937A0080917A00816080937A00EF
:1009A00080917A00806880937A001092C10061E0A3
:1009B00080E30E94EC0161E080E30E94EC0162E0D0
:1009C0008CE20E94EC0162E08DE20E94EC0162E0A8
:1009D0008EE20E94EC0162E08FE20E94EC01CE0107
:1009E00001965AE030E061E00AE025E03111B8C03C
:1009F0001D82FC015083018323832283DE015A96EA
:100A0000422F01900D924A95E1F740916D0B249F82
:100A1000D0011124A259B44FFE017A96722F019091
:100A20000D927A95E1F74F5F40936D0B3F5F5B5FEF
:100A300005963530D9F681E090E09093EF128093DF
:100A4000EE12F89461E086E30E94EC0110926E00D1
:100A500014BC11E015BD17BC18BC16BC61E08BE0DE
:100A60000E94EC0182E8809380008DE180938100F8
:100A700083E091E090938700809386001092890034
:100A80001092880016BB10936F0061E089E00E940D
:100A9000EC0183E28093B0000093B1008FE3809378
:100AA000B30087E08093B40017BB1093700061E03F
:100AB0008EE10E94EC0161E08FE10E94EC017894EC
:100AC00040E659E06FEF70E08DE092E00E94AB06E7
:100AD00025E0522E30E0232E30E0332E662463943E
:100AE000712C52E0A52EB12C63E0862E912C8CE265
:100AF0000E9461016C0190930B0280930A028DE2C7
:100B00000E9461017C0190930902809308028EE2A9
:100B10000E9461018C0190930702809306028FE28C
:100B20000E946101CD2809F4C2C0EF2809F4B0C0C9
:100B3000012B09F49DC0892B09F0C7C08091EE12EA
:100B40009091EF120297029708F4BFC080916E0B4C
:100B5000843708F0BAC09092EF128092EE12B5C0BE
:100B6000FC01648346CF00910C02C02ED12CFAE028
:100B70000F9F80011124045B1D4F98E2492EF12C38
:100B8000E12C85E0E816F104D9F0F701F595E79539
:100B9000F595E795E00FF11F449150E08E2D80957B
:100BA0008370880F02C0559547958A95E2F7642DAA
:100BB00088E28E0D0E941D02EFEFEE1AFE0AE1CFD1
:100BC0000E5F1F4F4394FDE24F12D9CF8FEFC81A2B
:100BD000D80AE3E0CE22DD24C0920C028091F0120C
:100BE0009091F11201968A30910558F49093F11288
:100BF0008093F0122114310409F479CF0E9400008F
:100C000076CF1092F1121092F0128091EE12909124
:100C1000EF1281309105C1F070F082309105D1F072
:100C20000397F9F040E659E06FEF70E08DE092E055
:100C30000E94AB06DFCF80916F0B6FEF8A3090F38D
:100C400080E00E946402EECF80916F0B823450F7F7
:100C500061E0F6CF80916E0B8A3020F360E08FEF79
:100C6000F0CF80916E0B8A36E8F660E081E0E9CF44
:100C70008091EE129091EF120297029730F18091DD
:100C80006E0B8A3010F1B092EF12A092EE121DC0DE
:100C90008091EE129091EF120297B8F080916F0B55
:100CA0008C3498F47092EF126092EE120EC0809124
:100CB000EE129091EF12029740F080916F0B8A3004
:100CC00020F01092EF121092EE1202E025E048E7B9
:100CD00060E080E00E943F0225E048E76BE480E0AE
:100CE0000E943F022BE445E065E080E00E943F0265
:100CF0002BE445E065E083E70E943F0210E080912D
:100D00006D0B181708F02FCF812F90E09C012F5FFB
:100D10003F4F529ED001539EB00D1124A359B44FA2
:100D2000589EF001599EF00D1124E359F44F0C9197
:100D300024814381628181810E943F021F5FDFCF56
:100D400010926D0B0895EE0FFF1F881F8BBF079049
:100D5000F691E02D1994DC0101C06D934150504093
:080D6000E0F70895F894FFCFBD
:00000001FF
