:100000000C9427010C944B010C944B010C944B0164
:100010000C944B010C944B010C944B010C944B0130
:100020000C944B010C944B010C944B010C944B0120
:100030000C944B010C944B010C944B010C94CC028E
:100040000C944B010C944B010C944B010C944B0100
:100050000C942B040C944B010C944B010C948202D5
:100060000C944B010C944B010C944B010C944B01E0
:100070000C944B010C944B010C944B010C944B01D0
:100080000C944B010C944B010C944B010C944B01C0
:100090000C944B010C944B010C944B010C944B01B0
:1000A0000C944B010C944B010C944B010C944B01A0
:1000B0000C944B010C944B010C944B010C944B0190
:1000C0000C944B010C944B010C944B010C944B0180
:1000D0000C944B010C944B010C944B010C944B0170
:1000E0000C944B010C94C3010C94B9010C94B10114
:1000F0000C94AB010C9496010C94BF010C949E01DE
:100100000C94A7010C94CD010C9492010C94A101C4
:100110000C94C7010C9482010C947D010C949A01FB
:100120000C94B5010C944A060C94D10100002200F5
:10013000250028002B002E003100340002010000B1
:10014000050108010B0100002100240027002A00FE
:100150002D003000330001010000040107010A01F5
:10016000000020002300260029002C002F00320070
:100170000001000003010601090105050505070549
:1001800008080808020202020A0A08080404040413
:10019000010101010101010103030303030303033F
:1001A000040707070C0C0C0C0C0C0C0C02020202CE
:1001B00006060606060606060B0B0B0B0B0B0B0BB7
:1001C0000102102020080810204010204080020169
:1001D000020108040201010204081020408080404E
:1001E000201008040201800402018040201008044D
:1001F00002010804020101020408102040800102EB
:1002000004081020408000000A0B02090C0D0E08A3
:1002100007030401000000000000000000000000CF
:1002200000000000000000000000000000000000CE
:10023000000012111000000000000000000000008B
:100240000000000000000000000000004A06112429
:100250001FBECFEFD1E2DEBFCDBF00E00CBF22E179
:10026000A0E0B2E001C01D92AA3FB207E1F711E0A1
:10027000C7E2D1E000E006C021970109802FFE010E
:100280000E944D06C632D10780E00807A9F70E94F8
:100290004A040C945C060C940000282F30E0F9010D
:1002A000EA5FFD4F9491F901E054FE4F44912658C6
:1002B0003E4FF9012491222309F477C0992311F1CB
:1002C00091509231F8F4E92FF0E08827E559FE4F7C
:1002D0008F4F0C944D069A019E017D01920196016B
:1002E0008201A101A701AB01B101B501B901BF01B3
:1002F000C3018201C701CD01D101809180008F77B8
:1003000080938000E22FF0E0EE0FFF1FE05AFE4FD7
:10031000A591B491EC91E42381E090E009F047C00D
:1003200080E00895809180008F7DEACF80918000E9
:10033000877FE6CF84B58F7784BDE4CF84B58F7D8A
:10034000FBCF8091B0008F778093B000DBCF80919E
:10035000B0008F7DF9CF809190008F7780939000CF
:10036000D1CF809190008F7DF9CF80919000877FD1
:10037000F5CF8091A0008F778093A000C3CF8091AC
:10038000A0008F7DF9CF8091A000877FF5CF80916D
:1003900020018F7780932001B5CF809120018F7D40
:1003A000F9CF80912001877FF5CF80E090E008951C
:1003B000CF93DF9390E0FC01E054FE4F24918658E8
:1003C0009E4FFC0184918823D1F090E0880F991F03
:1003D000FC01EA5BFE4FA591B491FC01E45DFE4F88
:1003E000C591D491623071F49FB7F8943C91822FFB
:1003F000809583238C93E8812E2B28839FBFDF91E8
:10040000CF9108958FB7F894EC912E2B2C938FBF3A
:10041000F6CFCF92DF92EF92FF920F931F93CF937D
:10042000DF93522F560F7EE1480F23E030E010E0BB
:10043000651771F1679F70011124982F941731F19E
:10044000983710F5603500F5E92FF0E0EF01D5950C
:10045000C795D595C795CE0DDF1DC45FDD4FE095DF
:10046000F095E370EE0FD9010E2E01C0AA0F0A9489
:10047000EAF7A095F881AF23680102C0CC0CDD1C1F
:10048000EA95E2F7AC29A8839F5FD8CF6F5FD0CF02
:10049000DF91CF911F910F91FF90EF90DF90CF9060
:1004A0000895CF93DF93C0916C0BC15095E0C99F25
:1004B000E0011124C459D44F9BE0CC36D90769F030
:1004C0002D81FE01349795E0DE01119601900D9289
:1004D0009A95E1F72D832597EFCF982F990F990FD4
:1004E000890F90916D0B980F90936D0B862F880F4D
:1004F000880F860F60916E0B680F60936E0BDF9113
:10050000CF9108951F920F920FB60F9211242F933F
:100510003F938F939F93AF93BF938091F6129091E7
:10052000F712A091F812B091F9123091F51223E070
:10053000230F2D3758F50196A11DB11D2093F512FB
:100540008093F6129093F712A093F812B093F912D9
:100550008091F1129091F212A091F312B091F412E5
:100560000196A11DB11D8093F1129093F212A093F8
:10057000F312B093F412BF91AF919F918F913F917D
:100580002F910F900FBE0F901F90189526E8230F04
:100590000296A11DB11DD2CF1F920F920FB60F92DE
:1005A00011240BB60F920F931F932F934F935F93CA
:1005B0008F939F93EF93FF93E5E0F2E080E000815B
:1005C000803031F0003059F421E026B9808309C031
:1005D00000000000000000000000000002C00A95BA
:1005E000008380910402882399F081508093040253
:1005F000FF91EF919F918F915F914F912F911F915B
:100600000F910F900BBE0F900FBE0F901F9018957B
:1006100080910302803560F700914600010D0E5F66
:1006200007700E9413031F91FF91EF913796E00F1F
:10063000099400000000000000000000000000001D
:100640009EE1899FF0011124E45FFD4F44E0019198
:1006500008B9049F08B8049E08B8049E08B8019120
:1006600008B9049F08B8049E08B8049E08B8019110
:1006700008B9049F08B8049E08B8049E08B8019100
:1006800008B9049F08B8049E08B8049E08B80191F0
:1006900008B9049F08B8049E08B8049E08B80191E0
:1006A00008B9049F08B8049E08B8049E08B80191D0
:1006B00008B9049F08B8049E08B8049E08B80191C0
:1006C00008B9049F08B8049E08B8049E08B80191B0
:1006D00008B9049F08B8049E08B8049E08B80191A0
:1006E00008B9049F08B8049E08B8049E08B8019190
:1006F00008B9049F08B8049E08B8049E08B8019180
:1007000008B9049F08B8049E08B8049E08B801916F
:1007100008B9049F08B8049E08B8049E08B801915F
:1007200008B9049F08B8049E08B8049E08B801914F
:1007300008B9049F08B8049E08B8049E08B801913F
:1007400008B9049F08B8049E08B8049E08B801912F
:1007500008B9049F08B8049E08B8049E08B801911F
:1007600008B9049F08B8049E08B8049E08B801910F
:1007700008B9049F08B8049E08B8049E08B80191FF
:1007800008B9049F08B8049E08B8049E08B80191EF
:1007900008B9049F08B8049E08B8049E08B80191DF
:1007A00008B9049F08B8049E08B8049E08B80191CF
:1007B00008B9049F08B8049E08B8049E08B80191BF
:1007C00008B9049F08B8049E08B8049E08B80191AF
:1007D00008B9049F08B8049E08B8049E08B801919F
:1007E00008B9049F08B8049E08B8049E08B801918F
:1007F00008B9049F08B8049E08B8049E08B801917F
:1008000008B9049F08B8049E08B8049E08B801916E
:1008100008B9049F08B8049E08B8049E08B801915E
:1008200008B9049F08B8049E08B8049E08B80000E0
:1008300000E008B9809102028F5F853019F0809343
:100840000202D6CE8FEF80930202809103028F5F67
:1008500080930302CDCE1F920F920FB60F921124F8
:100860008F939F938FEF8093020280E28093040224
:100870008091000290910102019690930102809371
:100880000002109203029F918F910F900FBE0F9064
:100890001F901895CF93DF93CDB7DEB76E970FB645
:1008A000F894DEBF0FBECDBF789484B5826084BD5E
:1008B00084B5816084BD85B5826085BD85B5816064
:1008C00085BD80916E00816080936E0010928100E2
:1008D000809181008260809381008091810081609D
:1008E000809381008091800081608093800080915E
:1008F000B10084608093B1008091B00081608093EA
:10090000B00080919100826080939100809191006D
:10091000816080939100809190008160809390002D
:100920008091A10082608093A1008091A1008160EC
:100930008093A1008091A00081608093A0008091AD
:100940002101826080932101809121018160809347
:1009500021018091200181608093200180917A00A3
:10096000846080937A0080917A00826080937A001C
:1009700080917A00816080937A0080917A0080680B
:1009800080937A001092C10061E080E30E94D80158
:1009900061E080E30E94D80162E08CE20E94D8010D
:1009A00062E08DE20E94D80162E08EE20E94D801EE
:1009B00062E08FE20E94D801CE0101965AE030E059
:1009C00061E00AE025E03111B0C01D82FC015083D6
:1009D000018323832283DE015A96422F01900D92D8
:1009E0004A95E1F740916C0B249FD0011124A35943
:1009F000B44FFE017A96722F01900D927A95E1F72D
:100A00004F5F40936C0B3F5F5B5F05963530D9F6C7
:100A100081E090E09093EE128093ED12F89461E003
:100A200086E30E94D80110926E0014BC11E015BD3F
:100A300017BC18BC16BC61E08BE00E94D80182E8AC
:100A4000809380008DE18093810083E091E090931A
:100A5000870080938600109289001092880016BB50
:100A600010936F0061E089E00E94D80183E28093D7
:100A7000B0000093B1008FE38093B30087E08093D0
:100A8000B40017BB1093700061E08EE10E94D801A2
:100A900061E08FE10E94D801789485E0382E90E0E3
:100AA000492E90E0592E66246394712C32E0A32ED7
:100AB000B12C43E0842E912C8CE20E944D016C01FC
:100AC00090930B0280930A028DE20E944D017C01FB
:100AD00090930902809308028EE20E944D018C01DE
:100AE00090930702809306028FE20E944D01CD2869
:100AF00009F487C0EF2809F475C0012B09F462C01E
:100B0000892B09F08CC08091ED129091EE12029722
:100B1000029708F484C080916D0B843708F07FC081
:100B20009092EE128092ED127AC0FC0164834ECF57
:100B30008091EF129091F01201968230910558F455
:100B40009093F0128093EF124114510409F4B4CF42
:100B50000E940000B1CF1092F0121092EF1280911B
:100B6000ED129091EE1281309105C1F070F082305B
:100B70009105D1F00397F9F040E659E06FEF70E08E
:100B80008CE092E00E945506DFCF80916E0B6FEFF4
:100B90008A3090F380E00E945102EECF80916E0B7C
:100BA000823450F761E0F6CF80916D0B8A3020F3EC
:100BB00060E08FEFF0CF80916D0B8A36E8F660E051
:100BC00081E0E9CF8091ED129091EE1202970297A9
:100BD00030F180916D0B8A3010F1B092EE12A0923C
:100BE000ED121DC08091ED129091EE120297B8F0B7
:100BF00080916E0B8C3498F47092EE126092ED122C
:100C00000EC08091ED129091EE12029740F080910B
:100C10006E0B8A3020F01092EE121092ED1202E06C
:100C200025E048E760E080E00E94090225E048E70F
:100C30006BE480E00E9409022BE445E065E080E07F
:100C40000E9409022BE445E065E083E70E94090267
:100C500010E080916C0B181708F06ACF812F90E09C
:100C60009C012F5F3F4F329ED001339EB00D112467
:100C7000A459B44F389EF001399EF00D1124E45967
:100C8000F44F0C9124814381628181810E94090289
:100C90001F5FDFCF10926C0B0895EE0FFF1F881FB0
:100CA0008BBF0790F691E02D1994DC0101C06D9384
:0C0CB00041505040E0F70895F894FFCF49
:00000001FF
